:10000000583C082069520300D1160300D91603009A
:10001000F1160300E1160300E9160300DAFEE4DF3F
:10002000F9160300F9160300F9160300F916030088
:10003000F9160300F91603009F6700000DD50000B4
:10004000BD120100C7120100D1120100DB12010034
:10005000E5120100EF120100F91201000313010083
:100060000D13010017130100211301002B130100D0
:10007000351301003F130100491301005313010020
:100080005D13010067130100711301007B13010070
:10009000851301008F13010099130100A3130100C0
:1000A000AD130100B7130100C1130100CB13010010
:1000B000D5130100DF130100E9130100F313010060
:0C00C000FD1301000714010011140100E1
:0402FC0055550BB099
:10030000FA0000002F414852532D382028417474C0
:1003100069747564652048656164696E6720616E03
:1003200064205265666572656E63652053797374E7
:10033000656D2900000000000000000000000000C2
:1003400000000000000000000000000000000000AD
:1003500000000000010A756E646566696E656400E0
:10036000000000000000000000000000000000008D
:10037000000000000000000000000000000000007D
:10038000000000000000000000000000000000006D
:10039000000000000000000000000000000000005D
:1003A00000000000000A756E646566696E65640091
:1003B000000000000000000000000000000000003D
:1003C000000000000000000000000000000000002D
:1003D000000000000000000000000000000000001D
:1003E000000000000000000000000000000000000D
:1003F00000000000000A756E646566696E65640041
:1004000000000000000000000000080000000000E4
:1004100000000000000000000000000000000000DC
:1004200000000000000000000000000000000000CC
:10043000000000000000000000E0FB44000000009D
:1004400000000000000000000000000000000000AC
:10045000000000000000000000000000000000009C
:10046000000000000000000000000000000000008C
:10047000000000000000000000000000000000007C
:10048000000000000000000000000000000000006C
:100490000000C84200000000090000000800000041
:1004A0002000000000000000090000002000000003
:1004B000200000000B0000002000000040000000B1
:1004C00025000000200000006000000098000000EF
:1004D0002000000080000000160000006000000006
:1004E000A0000000180000006000000000010000F3
:1004F0001A0000006000000060010000E30000003E
:1005000020000000C001000000000000000000000A
:1005100000000000000000000000000000000000DB
:1005200000000000000000000000000000000000CB
:1005300000000000000000000000000000000000BB
:1005400000000000000000000000000000000000AB
:10055000000000000000000000000000000000009B
:10056000070000000800000020000000000000005C
:100570000900000020000000200000000A00000028
:1005800020000000400000000D00000020000000DE
:10059000600000000E00000020000000800000004D
:1005A0000F00000020000000A000000098000000E4
:1005B00020000000C000000000000000000000005B
:1005C000000000000000000000000000000000002B
:1005D000000000000000000000000000000000001B
:1005E000000000000000000000000000000000000B
:1005F00000000000000000000000000000000000FB
:1006000000000000000000000000000000000000EA
:1006100000000000000000000000000000000000DA
:1006200000000000000000000700000008000000BB
:100630002000000000000000090000002000000071
:10064000200000000A000000200000004000000020
:100650000D00000020000000600000000E000000FF
:1006600020000000800000000F00000020000000BB
:10067000A00000009800000020000000C000000062
:10068000000000000000000000000000000000006A
:10069000000000000000000000000000000000005A
:1006A000000000000000000000000000000000004A
:1006B000000000000000000000000000000000003A
:1006C000000000000000000000000000000000002A
:1006D000000000000000000000000000000000001A
:1006E000000000000000000000000000000000000A
:1006F00000000000000000006F12033B00002042D9
:10070000000000400AD7233C0AD7233CCDCCCC3D87
:10071000CDCCCC3DCDCCCC3D6F12033B6F12033B17
:1007200000002042000000400AD7233C0AD7233CA7
:10073000CDCCCC3DCDCCCC3DCDCCCC3D63D6803DDD
:1007400000000000000000000000000000000000A9
:100750000000000000000000000000000000000099
:1007600001438EBD000000000000000000000000FA
:100770000000000000000000000000000000000079
:10078000000000003917853D000000000000000057
:100790000000000000000000000000000000000059
:1007A00000000000000000000000803F000000008A
:1007B00000000000000000000000803F000000007A
:1007C00000000000000000000000803F000000006A
:1007D000000000000000000063D6803D0000000023
:1007E0000000000000000000000000000000000009
:1007F00000000000000000000000000001438EBD6A
:1008000000000000000000000000000000000000E8
:1008100000000000000000000000000000000000D8
:100820003917853D000000000000000000000000B6
:1008300000000000000000000000000000000000B8
:1008400000000000000000000000000000000000A8
:100850000000000000000000000000000000000098
:1008600000000000000000000000803F00000000C9
:1008700000000000000000000000803F00000000B9
:1008800000000000000000000000803F00000000A9
:100890000000803F000000000000803F00000000DA
:1008A0000000803F0000FA3E000000000000000051
:1008B0000000000000000000000000000000000038
:1008C00000000000000000000000FABE0000000070
:1008D0000000000000000000000000000000000018
:1008E0000000000000000000000000000000FA3ED0
:1008F00000000000000000000000000000000000F8
:1009000000000000000000000000000000000000E7
:100910000000803F00000000000000000000000018
:100920000000803F00000000000000000000000008
:100930000000803F000000000000000000000000F8
:100940000000FA3E0000000000000000000000006F
:100950000000000000000000000000000000000097
:10096000000000000000FABE0000000000000000CF
:100970000000000000000000000000000000000077
:1009800000000000000000000000FA3E000000002F
:100990000000000000000000000000000000000057
:1009A0000000000000000000000000000000000047
:1009B0000000000000000000000000000000000037
:1009C0000000000000000000000000000000000027
:1009D0000000803F00000000000000000000000058
:1009E0000000803F00000000000000000000000048
:1009F0000000803F365C4BB60000000000000000A5
:100A000000000000000000000000000000000000E6
:100A10000000000000000000365C4B3600000000C3
:100A200000000000000000000000000000000000C6
:100A3000000000000000000000000000365C4BB623
:100A400000000000000000000000000000000000A6
:100A50000000000000000000000000000000000096
:100A60000000803F000000000000000000000000C7
:100A70000000803F000000000000000000000000B7
:100A80000000803F00001442000020C1000020C18F
:100A9000365C4BB6000000000000000000000000C3
:100AA0000000000000000000000000000000000046
:100AB00000000000365C4B36000000000000000023
:100AC0000000000000000000000000000000000026
:100AD0000000000000000000365C4BB60000000083
:100AE0000000000000000000000000000000000006
:100AF00000000000000000000000000000000000F6
:100B000000000000000000000000000000000000E5
:100B100000000000000000000000000000000000D5
:100B2000000000000000803F000000000000803F47
:100B3000000000000000803F0000803F0000000037
:100B400000000000000000000000803F00000000E6
:100B500000000000000000000000803F00000000D6
:100B60000000803F000000000000000000000000C6
:100B70000000803F000000000000000000000000B6
:100B80000000803F596E053F00000000207A5A3F68
:100B90000000803F0000000000000000DBF97E3F05
:100BA0000000000000000000000000000000000045
:100BB0000000000000000000000000000000000035
:100BC0000000000000000000000000000000000025
:100BD0000000000000000000000000000000000015
:100BE0000000000000000000000000000000000005
:100BF000000100000000C84100004B44000000005C
:100C00000000000000802044000000000000000000
:100C10000040AE4400000000000000000000C84199
:100C200000000C420000000000000000000000C1B5
:100C300000000000000000000000A0C10000000053
:100C4000000000000000144200000000000000004E
:100C5000000020C10000000000000000000020C1D2
:100C600000000000000000000000C84100004B44EC
:100C70000000000000000000008020440000000090
:100C8000000000000040AE44000000000000000032
:100C90000000C84100000C420000000000000000FD
:100CA000000000C100000000000000000000A0C122
:100CB00000000000000000000000144200000000DE
:100CC00000000000000020C1000000000000000043
:100CD000000020C10000000000000000000000072C
:100CE0009001000010000000000000000000000063
:100CF0000000000004000000000000000000E143CC
:100D0000190000000000E143190000000000803FCE
:100D10000000000000000000000000000000803F14
:100D20000000000000000000000000000000803F04
:100D3000010000000A0000000A000000000000009E
:100D400000C0794400C07944804FC347804FC347F7
:100D500083A5BA380000F041000000000000000048
:100D60000000000000000000000000000000000083
:100D70000000000000000000000000000000000073
:100D80000000000000000000000000000000000063
:100D90000000000000000000000000000000000053
:100DA0000000000000000000000000000000000043
:100DB0000000000000000000000000000000000033
:100DC0000000000000000000000000000000000023
:100DD0000000000000000000000000000000000013
:100DE0000000000000000000000000000000000003
:100DF00000000000000000000000000000000000F3
:100E000000000000000000000000000000000000E2
:100E100000000000000000000000000000000000D2
:100E200000000000000000000000000000000000C2
:100E300000000000000000000000000000000000B2
:100E400000000000000000000000000000000000A2
:100E50000000000000000000000000000000000092
:100E60000000000000000000000000000000000082
:100E700000000000000000008FC2753DB00F21355A
:100E8000B00F21350000000000000000000000004D
:100E90000000000000000000000000000000E1432E
:100EA0000000000000000000000000000AD7233C02
:100EB0000000000000E0FB44000000000000000013
:100EC00017B7D138640000000100000000000000E6
:100ED0000000000000000000000000000000000012
:100EE0000000000000000000000000000000000002
:100EF00000000000000000000000000000000000F2
:100F00000000344317B7D13800000000000034431C
:100F100000000000000000000000000000000000D1
:040F2000DCFE3412AD
:100F240030B502000B001800110002F0CFFF01D20F
:100F34001C000CE01000190091F0004102F0C6FF03
:100F440004D2180090F00040040000E014002000D7
:100F540030BD2DE9FE4F0024DFF8740A0078002824
:100F640013D1DFF8700A90F85C0800280DD0DFF880
:100F7400680ADFF8681A0160DFF8580A002180F86F
:100F84005C18DFF84C0A01210170DFF8540A00688C
:100F9400DFF8501A096802F0ABFF0290DFF8481A34
:100FA4000298FFF7BDFF0700DFF8340A4068DFF856
:100FB4003C1A096802F09CFF0500DFF82C1A28008F
:100FC400FFF7AEFF8046DFF8180A8068DFF8201AC2
:100FD400096802F08DFF0600DFF80C1A3000FFF7F5
:100FE4009FFF8146DFF80C0A0168DFF8080A0068F1
:100FF40003F000F88346DFF8000A0168DFF8F80917
:10100400006802F0F7FF594602F0F4FF8346DFF868
:10101400EC090168DFF8E409006802F0EBFF5946C7
:1010240002F0E8FFDFF8B019096802F0E3FF824636
:101034005046390002F0DEFFDFF8A819096803F012
:1010440045F8DFF8A01908605046414602F0D2FF87
:10105400DFF89819096803F039F8DFF89019086087
:101064005046494602F0C6FFDFF88419096803F0C8
:101074002DF8DFF87C190860DFF85409007800289F
:101084001CD0DFF85009D0F81404DFF84C190968B3
:1010940002F01CFF0CD2DFF840090168DFF83409C4
:1010A400D0F89C0802F0A6FFDFF82C19086005E0D0
:1010B400DFF81C090021017001200400DFF8400959
:1010C4000068411CDFF8382911604EF6612188421E
:1010D4000DD301200400DFF8280900210160DFF8A6
:1010E400240901210170DFF8200901210170E4B213
:1010F400002C28D000200400DFF8E808019001202B
:101104000090002305220121DFF80009006803F0A4
:1011140049FEDFF8D8080190012000900023052241
:101124000121DFF8EC08006803F03CFEDFF8C0089A
:10113400019001200090002305220121DFF8880D91
:10114400006803F02FFEBDE8F78F2DE9F04304009B
:101154000D0016001F005FF000083088411C31802C
:1011640080B244F820503088042822D3E1682068F3
:1011740002F0ACFFA16802F0BBFE616802F0B8FEA9
:1011840004F078FB31F0004104F09CFB81464846B2
:10119400396802F0ADFEDFF83C18D1F8181402F0FB
:1011A40029FF396802F092FF386000203080012066
:1011B40080464046C0B2BDE8F0832DE9F04186B0D8
:1011C4000024DFF85038DFF85028DFF850080168B1
:1011D400DFF84C08FFF7B9FF0400DFF84838DFF800
:1011E4004828DFF838084168DFF84008FFF7ADFF0A
:1011F4000400DFF83C38DFF83C28DFF82008816879
:10120400DFF83408FFF7A1FF040004F0DAFB80469E
:10121400E4B2002C69D0DFF8FC07006804F02AFB74
:1012240002000B005FF05530DFF8101804F0EEFBFD
:1012340004F048FB0700DFF8EC07006804F01AFB31
:1012440002000B005FF05530DFF8F01704F0DEFB0E
:1012540004F038FB0500DFF8D807006804F00AFB47
:1012640002000B005FF05530DFF8D01704F0CEFB1E
:1012740004F028FB06003800290002F027FF0100D3
:10128400300002F023FF04F0F5FA02000B00002006
:101294005FF0804104F0BAFB04F014FBDFF8681A35
:1012A4000860DFF83007DFF8601A0968C0F8001436
:1012B400DFF8580A0068002817D0300004F0DAFA82
:1012C400CDE90401280004F0D5FACDE90201380083
:1012D40004F0D0FACDE900014246DFF8341A5FF099
:1012E4008070DFF8283A1B689847DFF81807007801
:1012F400002811D0DFF8100A006804F0BBFACDE929
:10130400000102220121DFF80C0A006803F04AFD03
:10131400DFF8F0060021017006B0BDE8F0812DE988
:10132400F04786B000245FF000095FF00008DFF8A2
:10133400E839DFF8E829DFF8E8090168DFF8E409AB
:10134400FFF703FF0400DFF8E039DFF8E029DFF8F6
:10135400D0094168DFF8D809FFF7F7FE8146DFF8C6
:10136400D439DFF8D429DFF8B8098168DFF8CC096B
:10137400FFF7EBFE804604F024FB8246E4B2002C27
:1013840069D0DFF89409006804F074FA02000B00D5
:101394005FF05530DFF8A41604F038FB04F092FA3D
:1013A4000700DFF88409006804F064FA02000B0007
:1013B4005FF05530DFF8841604F028FB04F082FA5D
:1013C4000500DFF87009006804F054FA02000B000D
:1013D4005FF05530DFF8641604F018FB04F072FA7D
:1013E40006003800290002F071FE0100300002F00E
:1013F4006DFE04F03FFA02000B0000205FF0804114
:1014040004F004FB04F05EFADFF8C01A0860DFF8A9
:10141400C405DFF8B81A0968C0F8FC13DFF8EC0853
:101424000068002817D0300004F024FACDE9040144
:10143400280004F01FFACDE90201380004F01AFA7A
:10144400CDE900015246DFF8881A5FF40000DFF8A6
:10145400BC381B689847DFF8B0050078002811D025
:10146400DFF8680A006804F005FACDE900010222F9
:101474000121DFF8600A006803F094FCDFF88805B6
:101484000021017006B0BDE8F0872DE9FC4104009D
:101494000D001600200004F08BFBDFF83C1A0860F6
:1014A400280004F085FBDFF8301A4860300004F0AF
:1014B4007FFBDFF8241A8860DFF81C0A04F018FFA9
:1014C400DFF8180A0068401CDFF8101A086005F0FD
:1014D40043F90700DFF8080ADFF8081A0968016011
:1014E4001022DFF8F419DFF8000A0068006A05F03A
:1014F40089F9380005F034F9DFF8F009DFF8E41968
:1015040009680160DFF8E4090068DFF8D4190968A4
:10151400401ADFF8DC19086004F053FA8046DFF85B
:10152400EC07006800280BD0019600952300424682
:10153400DFF8C0190120DFF8D4C7DCF800C0E047A9
:10154400012005F0C1FABDE8F381FEB504000D00E9
:10155400160002AA0021DFF8A009006805F0EDFBDF
:10156400DFF898090068002805D1002C2FD0002D41
:101574002DD0002E2BD0DFF888090460DFF8840911
:101584000560DFF884090660DFF880090068201828
:10159400DFF878190860DFF8780900682818DFF8A0
:1015A40070190860DFF86C0900683018DFF86419F6
:1015B4000860DFF864090078401CDFF85C190870E3
:1015C400DFF838090068401CDFF830190860DFF8DC
:1015D4002809006805F02EFC04F0F3F90700DFF891
:1015E400500D0078DFF834190978884214D3DFF8F5
:1015F4001C07006800280BD00196009523003A00D0
:10160400DFF81C190420DFF804C7DCF800C0E04749
:10161400DFF81C0D00210170042005F055FADFF8F5
:10162400100D0078401CDFF8081D0870F7BDDFF8C6
:10163400F40800210160DFF8F00800210160DFF800
:10164400EC0800210160DFF8E80800210170DFF8F0
:10165400BC0800210160DFF8B80800210160DFF850
:10166400B40800210160DFF8B00800210170DFF840
:101674006C0800210160704710B582B000AA0021F7
:10168400DFF87408006805F058FBDFF88C08007870
:10169400012861D3DFF874080068DFF8641809686A
:1016A400022291FBF2F1401ADFF860180860DFF8BB
:1016B40060080068DFF84C180968022291FBF2F117
:1016C400401ADFF84C180860DFF848080068DFF8B3
:1016D40038180968022291FBF2F1401ADFF8341835
:1016E4000860DFF82808006804F062FA0400DFF8F4
:1016F4002808007804F066FA0100200005F0C8FB11
:10170400DFF830180860DFF80808006804F050FAC1
:101714000400DFF80408007804F054FA0100200003
:1017240005F0B6FBDFF80C184860DFF8E80700683E
:1017340004F03EFA0400DFF8E007007804F042FA0F
:101744000100200005F0A4FBDFF8E8178860DFF84B
:10175400C8070021017003E0DFF8DC0705F037FC5F
:10176400DFF8B40700210170DFF894070068022154
:1017740090FBF1F0DFF894170860DFF88807006841
:10178400022190FBF1F0DFF888170860DFF8780792
:101794000068022190FBF1F0DFF878170860DFF8A9
:1017A4005807006805F046FBDFF88837022200215D
:1017B400DFF8C80C006803F042F813BD2DE9F041CE
:1017C40082B004000D0016001F0004F0FAF88149ED
:1017D400C1F8B80B102005F077F900AA0021DFF852
:1017E400540B006805F0A9FADFF8F80A0460DFF882
:1017F400F80A0560DFF8F40A0660DFF828070068D5
:1018040004F0D6F98046200004F0D2F9414602F0F3
:101814005DFC05F02DFCDFF80C170860DFF8080705
:10182400006804F0C5F98046280004F0C1F9414677
:1018340002F04CFC05F01CFCDFF8EC160860DFF845
:10184400EC06006804F0B4F98046300004F0B0F906
:10185400414602F03BFC05F00BFCDFF8D0160860B3
:10186400DFF8CC060078401CDFF8C4160870DFF8F7
:10187400C80A0068401CDFF8C01A0860DFF8B40A20
:10188400006805F0D7FABDE8F38110B582B000AA6C
:101894000021DFF8A00A006805F04FFADFF890068F
:1018A4000078012861D3DFF87C060068DFF8341A79
:1018B4000968022291FBF2F1401ADFF86816086009
:1018C400DFF864060068DFF8201A0968022291FB39
:1018D400F2F1401ADFF850160860DFF8500600688D
:1018E400DFF8081A0968022291FBF2F1401ADFF8C6
:1018F4003C160860DFF82C06006804F059F904006F
:10190400DFF82C06007804F05DF90100200005F0F2
:10191400BFFADFF8281A0860DFF80C06006804F044
:1019240047F90400DFF80806007804F04BF90100D9
:10193400200005F0ADFADFF8041A4860DFF8EC0582
:10194400006804F035F90400DFF8E405007804F0D9
:1019540039F90100200005F09BFADFF8E0198860EE
:10196400DFF8CC050021017003E0DFF8D40905F0AD
:101974002EFBDFF8BC0500210170DFF86809006860
:10198400022190FBF1F0DFF89C150860DFF858099C
:101994000068022190FBF1F0DFF88C150860DFF895
:1019A4004C090068022190FBF1F0DFF88015086013
:1019B400DFF88009006805F03DFADFF8803902227B
:1019C4000021DFF8BC0A006802F039FF13BD0000F3
:1019D400E779001000C007205410001000409C4616
:1019E400B46700102075001095BFD6332875001019
:1019F40030750010B8750010C0750010BC7500106B
:101A040084750010E6790010E579001094760010D2
:101A14009876001094750010AC79001014670010CB
:101A24007466001098750010AE790010846600107A
:101A34009C750010B0790010946600105555E53F70
:101A44002DE9F04186B002AADFF8381A0F0090465B
:101A5400DFF8340AD0F89001DFF8301A02F0CAFA3D
:101A64004246390004F034FB029830F00040DFF8BD
:101A7400181AD1F8FC1902F029FA32D2039830F07E
:101A84000040DFF8041AD1F8FC1902F01FFA28D23A
:101A9400049830F00040DFF8F019D1F8FC1902F096
:101AA40015FA1ED2DFF8E8090078002804D0DFF820
:101AB400E4090121017020E0DFF8DC090068401C22
:101AC400DFF8D4190860DFF8D0090068DFF8B81926
:101AD400D1F8001A884210DBDFF8B4090121017043
:101AE4000BE0DFF8B00900210170DFF8A409002140
:101AF4000170DFF8A40900210160DFF8980900787B
:101B0400002847D0DFF88009D0F80404DFF88C19E6
:101B14000860DFF87409D0F80804DFF88419086055
:101B2400DFF86409D0F8F803DFF85C19D1F8F8138A
:101B340002F060FADFF86C190860E4480068E349D1
:101B4400096802F057FADFF8601908606E48006807
:101B54006D49096802F04EFADFF850190860DFF8A1
:101B64002809D0F80C04DFF82019D1F80C1402F07D
:101B740041FADFF83C190860DFF80C09D0F81004CA
:101B8400DFF80419D1F8101402F034FADFF824193C
:101B9400086039E0DFF804095FF07E510160DFF886
:101BA40000095FF07E510160DFF80C090400DFF8E2
:101BB40008090500DFF8000906002000210002F0F2
:101BC40019FADFF8E0180860C0480068BF490968DE
:101BD40002F010FADFF8D01808604B4800684A4950
:101BE400096802F007FADFF8C41808602800290021
:101BF40002F000FADFF8B81808603000310002F093
:101C0400F9F9DFF8B0180860DFF87C0890F83C0AAE
:101C140000286CD0DFF8A4080068002815D1DFF88C
:101C2400A00804F0C3FBDFF89C38DFF89C28DFF839
:101C3400941DDFF88C0804F0D2FADFF880080068FD
:101C4400401CDFF8781808605BE0DFF87008006873
:101C5400002807D1DFF864080068401CDFF85C182E
:101C640008604EE0DFF85838DFF86028DFF86018C5
:101C7400DFF8600804F0F7F8DFF84838DFF84828A0
:101C8400DFF8401DDFF8380804F0A9FADFF830085F
:101C9400019002200090002305220121DFF838087A
:101CA400006803F07FF8DFF8340801900220009008
:101CB400002305220121DFF82808006803F072F8E8
:101CC400DFF8200801900220009000230522012162
:101CD400DFF81408006803F065F8DFF8E007002176
:101CE4000160DFF8A407002180F83C1A09E0DFF85E
:101CF400D037DFF8D027DFF8D017DFF8C80C04F0AE
:101D0400B2F806B0BDE8F0818C7500104C100010DC
:101D1400C0280300A4760010A0750010B27900104A
:101D240024670010A4660010A4750010B479001094
:101D3400B4660010A8750010B6790010C4660010CF
:101D44002DE9F34F95B0170000AA1599DFF8700735
:101D540004F073F900AA00A9DFF8900B04F0B8F9B5
:101D640004AA1699DFF8580704F067F904AA04A92D
:101D7400DFF81407D0F8900104F0AAF9029991F061
:101D84000041059802F036F982460199069802F05E
:101D940031F9514602F09AF906000599059802F0C6
:101DA40029F982460699069802F024F9514602F070
:101DB4008DF98146484603F05DFD02000B00DFF813
:101DC400A00BDFF8A01B05F075F903F07BFD80463E
:101DD4003000414605F05CF804003000310002F0A8
:101DE40009F982460099009802F004F983460199A2
:101DF400019802F0FFF8594602F068F98346029907
:101E0400029802F0F7F8594602F060F9DFF8581B1F
:101E140002F05CF9494602F0EDF80100504602F088
:101E240067F805002800002105F0B8F916D228004B
:101E340005F0C6F9414605F02BF8050030000021F5
:101E440002F044F805D22000290002F03FF9040012
:101E540004E02000290002F04BF804000099DFF8A8
:101E6400680B02F0C7F808900698210002F0C2F847
:101E74000100019802F03CF8DFF84C1B02F0BAF8BC
:101E840009900598210002F0B5F8029902F01EF9B4
:101E9400DFF8341B02F0AEF80A900CA9DFF8200634
:101EA40004F0C9F908A90CA804F07EF808A804F005
:101EB4001FFA390008A804F04FF9380003F066FF50
:101EC40017B0BDE8F08F00009C76001090750010EC
:101ED400D8280300A8760010D4660010AC75001052
:101EE400E0760010041000E040760010E476001064
:101EF400E8760010382F03009C780010B0750010AD
:101F0400EC750010F0750010F475001010760010D8
:101F14001476001018760010E9790010941000105F
:101F24004C2F030004760010087600100C76001085
:101F3400E8790010E4660010E4190300F0B5D5B0A8
:101F44000024DFF84405D0F89808DFF83C15D1F8F0
:101F54001C1901F0CDFF060038A80090DFF8043BFF
:101F6400DFF8042BDFF8041B300005F03DFA40AA2B
:101F7400DFF8FC1ADFF8FC0A006804F0A9F84CAAA0
:101F840038A940A804F0A0F928AB2CAA30A9300045
:101F940005F0A3FA44A8009028AB2CAA30A94CA8B9
:101FA40005F0EEF9DFF8D00A0090DFF8D03ADFF858
:101FB400D02ADFF8D01A44A805F0A1F90C22DFF8E2
:101FC400B81ADFF8C40A0068006A04F01BFCDFF8E2
:101FD400BC0A0068002843D003F0F3FC0700DFF8D4
:101FE400B00A006803F046FCCDE90A01DFF8A40A50
:101FF400006803F03FFCCDE90801DFF87C0A806843
:1020040003F038FCCDE90601DFF86C0A406803F000
:1020140031FCCDE90401DFF8600A006803F02AFC12
:10202400CDE90201DFF8480A806805F021F800B222
:102034000190DFF83C0A406805F01AF800B20090FD
:10204400DFF82C0A006805F013F800B203003A0028
:10205400DFF8441A4FF40040DFF8307A3F68B8479D
:10206400082004F031FD34A80090DFF8303ADFF89E
:10207400302ADFF8301A300005F0B6F948AA34A93E
:10208400DFF8240A04F020F910AB14AA18A93000D0
:1020940005F03EFADFF8EC03009010AB14AA18A97F
:1020A40048A805F06DF9DFF8DC0304F021F9DFF846
:1020B400D803D0F89808F449D1F8F41801F018FFBF
:1020C40005003CA80090DFF8E439DFF8E429DFF8E4
:1020D400E419280005F088F950AA3CA9DFF8D809CA
:1020E40004F0F2F81CAB20AA24A9280005F0DAF9C0
:1020F400DFF8C80900901CAB20AA24A950A805F059
:102104003FF90CA80090DFF8B839DFF8B829DFF8F8
:10211400B819DFF8A80905F0F2F80C98DA49D1F8F3
:102124008C1501F0E5FEDFF8A41908600D98D64976
:10213400D1F8941501F0DCFEDFF8901948600E9890
:10214400D149D1F89C1501F0D3FEDFF880198860DD
:10215400DFF87C09DFF87C19096801600C22DFF8DC
:102164006C19DFF8740904F04DFB0C223CA9DFF86C
:102174006C0904F047FB0C2238A9DFF8640904F069
:1021840041FB0C2234A9DFF85C0904F03BFB0C2270
:1021940030A9DFF8540904F035FB0C222CA9DFF830
:1021A4004C0904F02FFB0C2228A9DFF8440904F0A1
:1021B40029FB0C2218A9DFF83C0904F023FB0C22AC
:1021C40014A9DFF8340904F01DFB0C2210A9DFF870
:1021D4002C0904F017FB0C2224A9DFF8240904F0CD
:1021E40011FB0C2220A9DFF81C0904F00BFB0C22C4
:1021F4001CA9DFF8140904F005FB0C22DFF8BC1855
:10220400DFF8080904F0FEFADFF80409DFF8C4185F
:1022140009680160DFF8F8080068DFF8B418096895
:10222400401ADFF8F0180860FEF7C7FFFFF777F8E9
:10223400DFF85808006800283CD003F0C2FB070010
:10224400DFF8D408006803F015FBCDE90801DFF8D6
:102254007C08806803F00EFBCDE90601DFF86C080A
:10226400406803F007FBCDE90401DFF8600800686B
:1022740003F000FBCDE90201DFF83C08806804F0BC
:10228400F7FE00B20190DFF83008406804F0F0FE79
:1022940000B20090DFF82008006804F0E9FE00B204
:1022A40003003A00DFF874184FF48040DFF8DC775D
:1022B4003F68B847022004F007FCDFF8100804F078
:1022C40017F8DFF85C18DFF8040803F045FFDFF8BF
:1022D400500803F05BFDDFF8A00704F009F855B0DF
:1022E400F0BD0000F8750010FC75001000760010B9
:1022F40080B5DFF83018DFF8300803F02DFFDFF881
:102304002C18724803F028FFDFF82418DFF8680758
:1023140003F022FFDFF81C18DFF8B00703F01CFFFE
:10232400DFF81418DFF8140803F016FF01BD0000ED
:10233400E4790010A078001088750010F46600108D
:10234400F81C03002DE9F84304000D00DFF8F00742
:10235400007800281BD1DFF8EC070068DFF8E817E5
:102364000968401A03F02EFC534904F091FD06005D
:10237400220021000C0014004348D0F890013100E1
:1023840001F038FE2200210003F0A2FE03E0DFF892
:10239400B00700210170DFF8B007DFF8A81709685B
:1023A4000160DFF8A80704F001F8DFF8A4070021B2
:1023B4000160DFF89C07A1684160606890F000400C
:1023C400DFF88C178860A06890F00040DFF8801771
:1023D400C860DFF87C0700210161DFF87407216819
:1023E4004161DFF86C0761688161DFF86407216887
:1023F40091F00041C161DFF8580700210162DFF864
:102404005427DFF84C17DFF8480703F0DEFFDFF846
:102414004827DFF840175FF07C5003F072FE00207D
:102424000700032F27DA00208046B8F1030F20DAD3
:102434000C2000FB07590C20DFF8101700FB0710D5
:1024440050F828000C21DFF8082701FB072151F878
:10245400281001F03BFE0C21DFF8FC2601FB0721CC
:1024640051F8281001F032FE49F8280018F101084B
:10247400DBE77F1CD5E7BDE8F18300007876001028
:1024840080760010B467001000C00720E02E65427B
:1024940096100010EC790010F0760010B47500105E
:1024A400EC760010C4750010C8750010CC750010CF
:1024B400D0750010D475001000007A442476001002
:1024C400EC0E001078C807206CC807207467001051
:1024D4002468001034680010D0760010F80E001044
:1024E400D4760010040F0010D87600102DE9F04FB8
:1024F40097B0DFF8680600680690DFF86006406869
:102504000790DFF8580680680890DFF854060068E2
:102514000990DFF84C0640680A90DFF844068068AA
:102524000B90DFF8400600680C90DFF8380640682E
:102534000D90DFF8300680680E9006990A9801F035
:10254400C5FD0E9901F0C2FD07003800002104F01A
:1025540025FE2BD25FF07E50390001F0B7FD04F068
:102564002FFE01005FF07C5004F092FC06005FF047
:102574007A50310004F08CFC0F900D980B9901F007
:10258400B7FC310001F036FD109008980C9901F069
:10259400AFFC310001F02EFD11900998079901F06C
:1025A400A7FC310001F026FD1290EAE00A98069992
:1025B40001F08CFC4CD20E98069901F087FC47D2AE
:1025C400069803F057F90022DFF89C3504F072FDF9
:1025D40004000D000A9803F04DF902000B002000DE
:1025E400290004F0EFFF04000D000E9803F042F9F7
:1025F40002000B002000290004F0E4FF03F062F95C
:102604001690169804F0DCFD5FF0804101F0F2FCB6
:1026140006000D980B9901F06BFC310004F038FCB6
:102624000F905FF07A50310001F0E4FC10900799AC
:10263400099801F04BFD310004F02AFC119008992F
:102644000C9801F043FD310004F022FC129098E054
:102654000E980A9901F03AFC4CD20A9803F00AF950
:102664000022DFF8043504F025FD04000D0006986F
:1026740003F000F902000B002000290004F0A2FF7F
:1026840004000D000E9803F0F5F802000B00200082
:10269400290004F097FF03F015F91590159804F03C
:1026A4008FFD03F0E7F800225FF0804303F0AEF9FA
:1026B40003F008F9060008980C9901F019FC3100A0
:1026C40004F0E6FB0F900799099801F0FFFC310034
:1026D40004F0DEFB10905FF07A50310001F08AFCC8
:1026E40011900B990D9801F0F1FC310004F0D0FB2E
:1026F400129046E00E9803F0BDF80022DFF868342B
:1027040004F0D8FC04000D00069803F0B3F80200AE
:102714000B002000290004F055FF04000D000A9866
:1027240003F0A8F802000B002000290004F04AFF7F
:1027340003F0C8F81490149804F042FD5FF080414F
:1027440001F058FC06000998079901F0D1FB31000B
:1027540004F09EFB0F9008990C9801F0B7FC31002F
:1027640004F096FB10900B990D9801F0AFFC31002A
:1027740004F08EFB11905FF07A50310001F03AFCC6
:102784001290DFF8E8130FA803F028FBDFF8DC034E
:102794000068DFF8DC13096801F0AAFB03F06AF8AB
:1027A4008046894639F00049DFF8C0034068DFF805
:1027B400C013496801F09CFB03F05CF804000D00B1
:1027C40035F00045DFF8A4038068DFF8A4138968B6
:1027D40001F08EFB03F04EF831F0004182468B4647
:1027E4002000290042464B4604F064FC52465B46F6
:1027F40004F060FC04000D00DC48C068DC49C968D2
:1028040001F076FB03F036F831F0004122002B0092
:1028140004F050FC03F056F81390D64800780028D2
:102824001CD11398D44904F0B9FC17D8CF48CF4928
:10283400096891F000410160CC48CC49496891F0A5
:1028440000414160C948C949896891F000418160EB
:10285400C648C649C96891F00041C160C548002115
:1028640001701022C149C5480068006A03F0CAFF1C
:102874008648006800281DD0BC48C06802F0FAFFF2
:10288400CDE90401B948806802F0F4FFCDE9020102
:10289400B648406802F0EEFFCDE90001B348006895
:1028A40002F0E8FF02000B00B5495FF40030774CFA
:1028B4002468A0474FF4807004F006F9AC49AB4893
:1028C40003F04AFC0C2206A9AE4803F09BFF0C223D
:1028D40009A9AD4803F096FF0C220CA9DFF8780C87
:1028E40003F090FF17B0BDE8F08F00002E9020BCDD
:1028F4002DE9F0410400DFF8640C0068251A4FF458
:102904007A7085422AD3DFF8180B0068DFF8141BAD
:102914000968401A0600300003F054F98046280084
:1029240003F050F9DFF8001B04F0B2FA5FF08141C4
:1029340001F060FB0100404604F0AAFA07003900E8
:10294400DFF8E80A006801F0CAFEDFF8D80ADFF809
:10295400D01A09680160DFF8040C0460BDE8F08156
:1029640054E41071732AC93E7B14C0C230B504000C
:1029740020000125EDB2002D22D0DFF8E41B04F085
:102984000DFC0BD8DFF8A81A01F0A0FBDFF8A41A9D
:1029940001F09CFAEED200210D00EBE7002101F0DA
:1029A40095FA0AD2DFF8B81B01F090FB002104F07D
:1029B400F5FBDFD800210D00DCE700210D00D9E78D
:1029C40030BD000060C80720E614CCC21CB5012449
:1029D400E4B2002C44D001AA0021DFF85C0A0068AC
:1029E40004F0ABF9DFF8540A00680228F0D3DFF8EA
:1029F400500A00680028EBD0DFF8240A0068002899
:102A0400E6D0FEF739FEFEF740FF2749DFF8340A27
:102A140003F0A2FBFFF792FA48480090DFF8283A47
:102A2400DFF8282ADFF83C1BDFF83C0B04F067FCD6
:102A34003D493B4803F090FBDFF8301B0E4803F0A0
:102A44008BFBDFF8280B03F0A1F9DFF8241BDFF878
:102A54001C0B03F081FBFFF74BFC00200400B7E7DD
:102A640013BD000038C907202CC9072020C907203E
:102A7400E46600105010001024670010E8C6072018
:102A8400DCC60720D0C607207C7600104C1000104E
:102A9400DC750010D8750010182103005CC90720EC
:102AA40050C9072044C907200467001010C9072033
:102AB40004C90720F8C80720D4660010C4670010B2
:102AC40080C5072074C5072068C507201467001057
:102AD400E0760010041000E054C10720CCC40720A5
:102AE40034C6072084C70720ACC60720B8C6072011
:102AF400C4C60720FCC7072008C8072014C807203D
:102B040044C5072050C507205CC5072088CB072093
:102B1400E4760010E8760010E07500103821030018
:102B240044670010D467001064670010E467001065
:102B34000468001014680010F46700103467001073
:102B4400971000101C760010F47600103464001006
:102B5400C8630010EC6300101064001034680010A7
:102B640024680010846700100000F03F64660010C1
:102B740044680010981000100100803F387600105F
:102B8400602F03000CCA072018CA07207CB5DFF8A1
:102B9400E4095FF07E510160DFF8DC095FF07E51EB
:102BA4000160DFF8D80900210160DFF8D4090021B1
:102BB4000160DFF8D00900210160DFF8CC09D0F80A
:102BC4001404DFF8C8190860DFF8C4090021017093
:102BD400DFF8B409D0F82008DFF8B8190860DFF886
:102BE400B409DFF8A419D1F824184160DFF8980972
:102BF400D0F82808DFF8A0190860DFF89C09DFF88E
:102C04008819D1F82C184160DFF87C09D0F8300815
:102C1400DFF888190860DFF88409DFF86C19D1F847
:102C240034184160DFF86009D0F8FC03DFF870194C
:102C34000860DFF85409D0F80004DFF86819086068
:102C4400DFF85C09006802F015FE0022DFF858394D
:102C540004F078FD02F036FE0400DFF85009046049
:102C6400DFF84C090460DFF84C090460DFF834092C
:102C7400006802F0FFFD0022DFF82C3904F062FD49
:102C840002F020FE0500DFF830090560DFF82C09AA
:102C94000560DFF82C090560DFF82869002E03D1F0
:102CA400DFF8240904F093F90821300001F05AFBFD
:102CB400DFF8181908600921300001F053FBDFF830
:102CC400101908600A21300001F04CFBDFF80419E8
:102CD40008600B21300001F045FBDFF8FC180860A8
:102CE4000C21300001F03EFBDFF8F01808601421DD
:102CF400300001F037FBDFF8E818086015213000D8
:102D040001F030FBDFF8DC1808601621300001F018
:102D140029FBDFF8D41808604321300001F022FBBE
:102D2400DFF8C81808606221300001F01BFBDFF8EF
:102D3400C01808607E21300001F014FBDFF8B418DD
:102D440008606C21300001F00DFBDFF8AC1808605E
:102D54006D21300001F006FBDFF8A01808606E2139
:102D6400300001F0FFFADFF898180860882130007D
:102D740001F0F8FADFF88C1808608921300001F0BE
:102D8400F1FADFF8841808608A21300001F0EAFAC9
:102D9400DFF8781808604D21300001F0E3FADFF81D
:102DA400701808604E21300001F0DCFADFF8641876
:102DB40008604F21300001F0D5FADFF85C18086094
:102DC4001721300001F0CEFADFF8501808601821FE
:102DD400300001F0C7FADFF8481808601921300004
:102DE40001F0C0FADFF83C1808601A21300001F045
:102DF400B9FADFF8341808605321300001F0B2FA50
:102E0400DFF8281808605421300001F0ABFADFF82D
:102E1400201808605521300001F0A4FADFF81418D6
:102E240008608B21300001F09DFADFF80C1808606F
:102E34008C21300001F096FADFF8001808608D212B
:102E4400300001F08FFADFF8D81B086099213000B8
:102E540001F088FADFF8CC1B08602821300001F06B
:102E640081FADFF8C41B08602721300001F07AFAE8
:102E7400DFF8B81B08609A21300001F073FADFF81C
:102E8400B01B08609B21300001F06CFADFF8A41B32
:102E940008609C21300001F065FADFF89C1B086093
:102EA4009D21300001F05EFADFF8901B08609E213E
:102EB400300001F057FADFF8881B08609F213000CA
:102EC40001F050FADFF87C1B0860A021300001F00B
:102ED40049FADFF8741B0860A121300001F042FABE
:102EE400DFF8681B08601B21300001F03BFADFF8B3
:102EF4003C150860F921300001F034FADFF8501B6A
:102F04000860DFF8C8060068002800F0E180DFF8F8
:102F1400C0060068002800F0DB80DFF8B80600680F
:102F2400002800F0D580DFF8B0060068002800F023
:102F3400CF80DFF8A8060068002800F0C980DFF819
:102F4400A0060068002800F0C380DFF89806006837
:102F5400002800F0BD80DFF890060068002800F02B
:102F6400B780DFF888060068002800F0B180DFF839
:102F740080060068002800F0AB80DFF8780600685F
:102F8400002800F0A580DFF870060068002800F033
:102F94009F80DFF868060068002800F09980DFF859
:102FA40060060068002800F09380DFF85806006887
:102FB400002800F08D80DFF850060068002800F03B
:102FC4008780DFF848060068002800F08180DFF879
:102FD4004006006800287BD0DFF838060068002827
:102FE40076D0DFF834060068002871D0DFF82C06AC
:102FF400006800286CD0DFF828060068002867D035
:10300400DFF820060068002862D0DFF81C0600689C
:1030140000285DD0DFF814060068002858D0DFF8D7
:1030240010060068002853D0DFF80806006800285E
:103034004ED0DFF804060068002849D0DFF8FC050C
:103044000068002844D0DFF8D809006800283FD081
:10305400DFF8D009006800283AD0DFF8CC0900680E
:10306400002835D0DFF8C4090068002830D0DFF824
:10307400C009006800282BD0DFF8B80900680028D0
:1030840026D0DFF8B4090068002821D0DFF8AC09A5
:10309400006800281CD0DFF8AC090068002817D0AD
:1030A400DFF89C090068002812D0DFF89C0900684A
:1030B40000280DD0DFF894090068002808D0DB4808
:1030C4000068002804D0DFF888090068002804D1CB
:1030D400DFF8800903F07BFF67E1DFF8F0040068A4
:1030E400DFF86C190968884200F05B81DFF8E004BE
:1030F4000068DFF85C190968884200F05281DFF843
:10310400D4040068DFF848190968884200F049814E
:10311400DFF8C4040068DFF838190968884200F051
:103124004081DFF8B8040068DFF824190968884290
:1031340000F03781DFF8A8040068DFF81419096883
:10314400884200F02E81DFF89C040068DFF8001943
:103154000968884200F02581DFF88C040068DFF8F4
:10316400F0180968884200F01C81DFF880040068C8
:10317400DFF8DC180968884200F01381DFF8700476
:103184000068DFF8CC180968884200F00A81DFF88B
:1031940064040068DFF8B8180968884200F0018107
:1031A400DFF854040068DFF8A8180968884200F0C2
:1031B400F880DFF848040068DFF89418096888424A
:1031C40000F0EF80DFF838040068DFF8841809683D
:1031D400884200F0E680DFF82C040068DFF87018FD
:1031E4000968884200F0DD80DFF81C040068DFF81D
:1031F40060180968884200F0D480DFF81004006881
:10320400DFF84C180968884200F0CB80DFF800042E
:103214000068DFF83C180968884200F0C280DFF8D3
:10322400F4030068DFF828180968884200F0B980C0
:10323400DFF8E4030068DFF818180968884200F032
:10324400B080DFF8D8030068DFF804180968884202
:1032540000F0A780DFF8CC030068DFF8F4170968F2
:10326400884200F09E80DFF8C0030068DFF8E017B2
:103274000968884200F09580DFF8B0030068DFF841
:10328400D0170968884200F08C80DFF8A403006836
:10329400DFF8BC170968884200F08380E5480068BD
:1032A400DFF8AC17096888427BD0E3480068DFF890
:1032B400A0170968884274D0E0480068DFF89017C6
:1032C400096888426DD0DFF858070068DFF8801776
:1032D4000968884265D0DFF84C070068DFF870178A
:1032E400096888425DD0DFF840070068DFF860179E
:1032F4000968884255D0DFF834070068DFF85017B2
:10330400096888424DD0DFF828070068DFF84017C5
:103314000968884245D0DFF81C070068DFF83017D9
:10332400096888423DD0DFF810070068DFF82017ED
:103334000968884235D0DFF804070068DFF8101701
:10334400096888422DD0DFF8FC060068DFF8001712
:103354000968884225D0DFF8E8060068DFF8F0162F
:10336400096888421DD0DFF8E0060068DFF8E0163F
:103374000968884215D0DFF8D4060068DFF8D01653
:10338400096888420DD029480068DFF8C416096826
:10339400884206D0A2480068DFF8B416096888425B
:1033A40003D1DFF8D40903F012FEDFF8D00904F0EA
:1033B4000DFBDFF8CC0905F0D5FFDFF8C80906F0EE
:1033C40033F9DFF8C429DFF8C4197E4801F007F89F
:1033D400FEF736FB03F02EFF06F0E5FB6A4890F893
:1033E400F80908F0E0FBC0B205F0E0FFDFF8A0192F
:1033F400086000208DF800000120019000AA00213F
:10340400DFF8900909F01FF90121DFF8880909F0B4
:1034140097F9DFF8840901210170FFF7D7FA73BD2A
:10342400887500107C75001000007A44CC7600107A
:103434000000B4C30100B44390780010AC750010D0
:10344400B0750010F466001050C8072044C8072067
:103454002DE9F04188B04448C1684348C06800F091
:10346400C9FDDFF83819096800F030FE06003000A5
:1034740002F077FC002808D0DFF82009006831004A
:1034840003F006FD3B49086003E0DFF8140903F08C
:103494009EFD38480168DFF89805006801F01FF9BF
:1034A40004AADFF80019DFF8000902F00DFF04A8F0
:1034B40002F01EFF079804002000210000F09AFD8E
:1034C400DFF8E818096800F001FE0700380002F090
:1034D40048FC002808D0DFF8D4080068390003F05D
:1034E400D7FC2549086003E0DFF8C40803F06FFD4A
:1034F40021480168DFF83C05006801F0F0F800AAF3
:10350400DFF8B018DFF8B00802F0DEFE00A802F021
:10351400EFFE039805002800290000F06BFDDFF89A
:103524009C18096800F0D2FD8046404602F019FC60
:10353400002809D0DFF884080068414603F0A8FC9D
:10354400DFF87C18086003E0DFF8780803F03FFD3B
:1035540008B0BDE8F081000024CA07207875001087
:103564000000B44338C80720B46700105467001043
:1035740074670010B8750010BC750010E075001079
:10358400D8750010DC75001000C00720541000101E
:10359400E7790010207500102875001030750010B0
:1035A400907500108C75001000001040A07500107C
:1035B400A4750010A875001094750010987500107B
:1035C4009C750010D00F0010300F030028760010F7
:1035D4002C76001030760010347600103876001007
:1035E4003C760010407600104476001048760010B7
:1035F4004C76001050760010547600105876001067
:103604005C76001060760010647600106876001016
:103614006C760010707600107476001078760010C6
:103624007C76001080760010847600108876001076
:103634008C76001090760010947600109876001026
:103644002DE9F047AEB000240025002720A8009003
:10365400DFF87437DFF87427DFF87417DFF87407BE
:1036640003F00DFEDFF870070090DFF87037DFF825
:103674007027DFF8701720A803F041FEDFF8580721
:103684000068070037F00040DFF85C17D1F8501AE3
:1036940000F01CFC03D2DFF8400700210160DFF8D2
:1036A40038074068070037F00040DFF83C17D1F8CE
:1036B400501A00F00BFC03D2DFF81C070021416014
:1036C400DFF814078068070037F00040DFF81817A8
:1036D400D1F8501A00F0FAFB03D2DFF8FC060021FF
:1036E4008160DFF8040790F8300A002808D0DFF87A
:1036F400FC26DFF8E416DFF8B006FEF721FB09E04C
:10370400DFF8E816DFF8A00602F026FDDFF8DC0695
:1037140002F03CFB0C22DFF8C016DFF8D406006888
:10372400006A03F06FF8DFF8CC060068002836D092
:1037340002F047F98146DFF8A006806802F09AF8A3
:10374400CDE90601DFF89006406802F093F8CDE970
:103754000401DFF88406006802F08CF8CDE9020168
:10376400DFF89406806803F083FC00B20190DFF870
:103774008806406803F07CFC00B20090DFF878060D
:10378400006803F075FC03001BB24A46DFF86C16B0
:103794004FF40050DFF85CC6DCF800C0E04720209E
:1037A40003F092F9DFF84C06006800281DD0DFF81A
:1037B4001806006802F05EF8CDE90201DFF80C0695
:1037C400006802F057F8CDE90001DFF8040600684C
:1037D40002F050F802000B00DFF824165FF480308A
:1037E400DFF810C6DCF800C0E04724A9DFF8E805DC
:1037F400FEF7A8FDDFF80C26DFF80C1624A802F06B
:103804001CFCDFF80826DFF8081624A802F015FCD3
:103814000CAADFF80016DFF8EC0502F055FD0CA841
:1038240002F066FD0F980F9900F0E4FBDFF8E8154D
:10383400096800F04BFC8046404602F092FA0028EA
:1038440007D0DFF8D4050068414603F021FB0400EB
:1038540003E0DFF8C80503F0BAFB08AADFF88C150B
:10386400DFF8A80502F030FD08A802F041FD0B982E
:103874000B9900F0BFFBDFF8A815096800F026FCDF
:103884000600300002F06DFA002807D0DFF890053A
:103894000068310003F0FCFA050003E0DFF884055A
:1038A40003F095FB1CAADFF85C15DFF8680502F04D
:1038B4000BFD14AA1CA989469246DFF86C05006822
:1038C400DFF8FC14096800F095FBDFF8601509685F
:1038D40000F090FB0100200000F08CFB52464946AA
:1038E40002F0F6FBDFF8482514A9DFF8180502F00A
:1038F400D7FCDFF83C0502F0FBFCDFF8340502F0EE
:1039040045FADFF82C15DFF8FC0402F02EFC002841
:103914001DD0DFF820050068401CDFF8181508608A
:10392400DFF8100500680A21B0FBF1F201FB120078
:1039340001280CD1DFF8BC040068002807D0DFF8A8
:10394400F8145FF48020DFF8AC241268904718AABA
:10395400DFF8B814DFF8940402F0B6FC10AA18A932
:1039640089469246DFF8D4040068DFF8D414096865
:1039740000F040FBDFF8B414096800F03BFB0100E1
:10398400280000F037FB5246494602F0A1FBDFF85D
:10399400B42410A9DFF8740402F082FCDFF8A40454
:1039A40002F0A6FCDFF89C0402F0F0F9DFF89414AE
:1039B400DFF8580402F0D9FB00281DD0DFF8880492
:1039C4000068401CDFF880140860DFF87C0400689D
:1039D4000A21B0FBF1F201FB120001280CD1DFF83F
:1039E40014040068002807D0DFF860145FF4802016
:1039F400DFF80024126890470C22DFF808141248FC
:103A04000068006A02F0FEFE0C22DFF800140F4882
:103A14000068006A02F0F6FE2EB0BDE8F0870000F0
:103A24009C760010A0760010A4760010A8760010F2
:103A3400AC760010B0760010B4760010B8760010A2
:103A4400C0760010BC760010C4760010C876001052
:103A5400DC760010640F03002DE9F0478CB0DFF82A
:103A6400F00300688046DFF8800390F8EC03002838
:103A740015D104AADFF8B813CF48C06802F028FBB8
:103A840000AA04A9CC4802F01FFC00A802F04AFCDA
:103A940004002100DFF8BC03006800F020FE08AA3F
:103AA400DFF88C13DFF8B00302F0C7FADFF8AC23B9
:103AB400DFF89013DFF8A00302F0BFFADFF8A023C9
:103AC40008A9DFF8980302F00AF9DFF8940302F07A
:103AD4000FFCDFF88C0302F059F9DFF88823DFF8D4
:103AE4007C13DFF87C0302F0FAF8DFF8780302F0C5
:103AF400FFFBDFF8700302F049F9DFF8680301689F
:103B0400DFF85C03006808F0AFFEDFF85C1300F038
:103B140071FA0600DFF844038168D048406802F077
:103B24001CFC0100CD48006808F09EFE90F00040A7
:103B3400CD4900F05FFACD490860C8488168C7489C
:103B4400406808F091FEC84900F054FAC84908607A
:103B54003000FEF70BFFC7490860C748C54909682C
:103B64000160A148D0F840010700C348016838004B
:103B740000F0ACFA05002800FEF7F8FEBF49086023
:103B8400BA480168BE48006800F0A9FDB848016859
:103B9400BC48006800F0A3FDB6480168BA48006854
:103BA40000F09DFDB5480168B848006800F097FD35
:103BB4000C22AB49B6480068006A02F023FE0C22CE
:103BC400A849B4480068006A02F01CFE0C22984917
:103BD400B1480068006A02F015FE0C229949AF480A
:103BE4000068006A02F00EFE4FF44C6002F06CFFB5
:103BF400974800688146B9EB080082460CB0BDE8DE
:103C0400F087F0B587B092480068050001F0D9FE4E
:103C140004007548D0F8B80BA1490860FDF72CFDE5
:103C2400FDF733FE9E480068FEF762FE72499D4828
:103C340002F092FAFEF782F9FFF70AFCFDF789F920
:103C4400FFF7FEFCFFF708FFFEF750FC67499648B4
:103C540006F048FAFEF74CFB94480068401C934970
:103C640008607B4800680600701B070090480068E5
:103C7400874202D28E48076003E08D488C49096868
:103C840001608C480068B84202D28A48076003E0A9
:103C9400884888490968016087480078401C86493B
:103CA4000870854800788549097888421ED35148B0
:103CB4000068002817D06F48006801F0DBFDCDE9EB
:103CC40004016B48006801F0D5FDCDE902016748A5
:103CD400006801F0CFFDCDE90001220078490820F9
:103CE400444B1B68984774480021017007B0F0BD2D
:103CF40080B500208DF8000008F084F9FEF746FF37
:103D040000AA00216F48006803F017F801F059FE7B
:103D14003549C1F8A40B9DF80000002803D0052004
:103D240001F018FEECE7FDF78BFE06F009F8FFF74B
:103D340068FF2D4890F8840B0028E1D0FEF746FE7A
:103D44002948002180F8841BDAE75C490870704731
:103D54005D490870704710B504002348012180F8BC
:103D6400841B214890F8840B002803D00A2001F01A
:103D7400F1FDF6E710BD0000301403008F140000BD
:103D84004F150000C1170000585303008569020055
:103D94005010001000400940EA790010C47500106A
:103DA400980F03000468001024670010C875001001
:103DB400CC0F03001468001014670010CC750010B9
:103DC400C075001000100300307500102875001035
:103DD40020750010B46700103467001050C8072025
:103DE40044C8072038C8072000C0072054670010C3
:103DF400847600104C100010046700105821030052
:103E0400F028030094670010D4670010A467001022
:103E1400E467001044670010D0750010D00A030056
:103E2400D4750010080B0300B4750010B8750010A9
:103E3400646700107075001060140300EC760010C5
:103E4400BC75001074670010747500103410030002
:103E54000840094048770010EC0E001084670010F9
:103E64002468001034680010E02E6542D8750010F4
:103E7400DC750010E0750010E4750010E8750010A2
:103E8400287600102C76001030760010347600105E
:103E9400B4760010B8760010BC760010C07600101E
:103EA4001C760010F466001054C1072080750010C1
:103EB4005810001020760010EB79001095100010B7
:103EC4001824030090780010941000104FF0807CA8
:103ED4001CEB400F94BF1CEB410F05E040EA010CC2
:103EE4005FEA4C0C01D28842704718BF8142704788
:103EF40090EA010F44BF81F0004100F0EEB8431A8C
:103F04004FF000423EBF5340C01AC918D3095FEABC
:103F1400D05C13EB400F34BFB3EB410F40E07CEBBC
:103F2400D1530CD342EA012122D8D1EB402009D34A
:103F3400400A28BF5FEA500140EBCC507047401A5A
:103F440015D04002B0FA80F2521C9040400A4FEA69
:103F54003C23B3EB026384BF00EB730007E040F43F
:103F640000001A16DB07C2F10102D0401843704763
:103F7400182BFCDC31FA03F202FA03F3591A38BFA6
:103F840042F00102D2EB40203CBF4000ACF1010CF6
:103F94005FEACC5CC20572F100414CEB50207047E3
:103FA40013EB400F0FD24B0009D0ACEBD153022BD3
:103FB40003DB4902172BDDDD70479143401A4300B0
:103FC400D5D10020704713EB410FD0D36FF0000020
:103FD400704750F8041B61B150F8042BD30744BF59
:103FE400A9F101039A18002342F8043B091FFAD1EE
:103FF400EFE77047FF2212EAD05C1DBF12EAD153EB
:10400400944593422BE09C44D30780EA01021A4072
:1040140043EA002043EA0121A1FB0030410038BFFC
:1040240040007CF17F010BDBFE294ADA5B0842EA9F
:10403400C15153EA006373F1004C51EB10207047F7
:10404400D1F1080CDCF120012FDB5B0810FA01F13F
:104054000B4373F1004120FA0CF050417047944532
:104064001CBF02EAD153934280EA010202F00042EB
:104074001DD0400019D0490017D05BB9634514D056
:104084000902B1FA81F39940BCEB030CC00140F082
:104094000040C1E70002B0FA80FC10FA0CF0B3EB68
:1040A4000C0CC90141F00041B6E710007047400014
:1040B4000AD0490008D010F1807F94BF11F1807FAD
:1040C40002E042F0FF407047D043704790EA010F8E
:1040D40044BF81F00041FFF712BF421A3CBF801A6F
:1040E40089184FF0004CC0F3C752FF2A24D0C1F303
:1040F400C75313B3D21AD2F1190327DD4CEA0121B5
:104104004CFA03F321EA0303D140C20D4CEA002028
:10411400401834BF20EA0C004CEA5000D20553EAA0
:10412400006373EB0C0C52EB1020420012F1807F01
:1041340038BF7047C00DC0057047490212BF9A428C
:1041440000EB5120F8E7D2F11703D9D57047026884
:10415400531C03601170704710B402001078030000
:10416400521C0800411C0078834201D0012000E069
:104174000020C0B2002802D05FF0FF300FE018002A
:10418400431E00280AD01000421C0C00611C007859
:104194002478A042F3D05FF0FF3000E0002010BC90
:1041A40070470079704780797047C06870478068AD
:1041B4007047407970472030704720307047203076
:1041C40070472030704720307047203070472030CF
:1041D40070470100002901D100200AE0487908282D
:1041E40001D1486A05E04879092801D1486A00E00C
:1041F4000020704770B504000D0000200600A06880
:1042040086420DDAE06850F8260081682800FFF73E
:10421400A3FF002802D12661300004E0761CEEE7FB
:1042240026615FF0FF3070BD10B40300D31851183D
:104234001000421E00280AD41800431E0C00611E00
:1042440000782478A042F3D05FF0FF3000E0002033
:1042540010BC70472DE9F84304000D00280008F055
:1042640069FB461CB71E00208146A068814525DAFB
:10427400E06850F829008068804698F8000086427B
:1042840019D1287898F80110884214D117EB080046
:104294004078795D88420ED17A1EE06850F8290092
:1042A4008068411C2800FFF7BFFF002803D1C4F831
:1042B4001090484606E019F10109D6E7C4F81090B9
:1042C4005FF0FF30BDE8F28370B402009068401ED6
:1042D4000300002005008B4201DBA94202DA5FF0F3
:1042E400FF3021E0AB420ED1D06850F825000079B0
:1042F400814202D11561280016E05FF0FF301061A1
:104304005FF0FF3010E0581B022690FBF6F02818EF
:104314000400D06850F824000079884201DB2300AF
:10432400E0E7601C0500DDE770BC70478168C06889
:1043340010EB810050F8040C7047F8B504000D0030
:1043440029002000FFF756FF0600002E04D52000A8
:10435400FFF7ECFF070003E0E06850F826000700D1
:104364003800F2BDF8B504000D0029002000FFF765
:10437400ABFF0700002F04D52000FFF7D7FF06008E
:1043840003E0E06850F8270006003000F2BD70B585
:1043940004000025E06940780500012D11DB0020B0
:1043A4000600AE420DDAE06910EB86004068002892
:1043B40005D02000E16911EB860149688847761C25
:1043C400EFE770BD70B504000D0026687068002822
:1043D40004D0EDB2290020007268904770BD2DE929
:1043E400F04104000D0016002800002801D100202F
:1043F40027E031002000FFF7FDFE0700002F01D564
:1044040000201EE0E06850F827008046D8F81C0021
:104414004078042805D3711C1B4802F0D8FD002005
:104424000FE0D8F81C004078D8F81C1011EB80007D
:104434004560D8F81C004078401CD8F81C1048701F
:104444004046BDE8F08138B504000D00280000287E
:1044540001D1002016E0E0694078042806D3A06862
:10446400411C094802F0B3FD00200BE0E0694078EC
:10447400E16911EB80004560E0694078401CE16926
:104484004870012032BD00000014030010B5040080
:10449400E4B2200008F069FA002802D15FF0FF308E
:1044A4000CE0E4B2200008F074FA002803D0B4F160
:1044B400300040B202E0B4F1370040B210BD010058
:1044C400C9B2312901D1012006E0C9B2302901D194
:1044D400002001E05FF0FF3070472DE9F041040057
:1044E400A04698F80000002801D1002060E098F868
:1044F4000000032804D218F1010008F053FA57E031
:1045040098F80100302825D198F8020008F052FAF2
:1045140058281FD198F80000050008F2030800206D
:1045240006002800451E002812D098F8000008F064
:1045340041FA18F10108C0B2FFF7A8FF07007FB2E3
:10454400002F01D5300033E07FB217EB0616E8E701
:1045540030002DE098F80100302825D198F80200A9
:1045640008F028FA42281FD198F80000050008F244
:104574000308002006002800451E002812D098F8E1
:10458400000008F017FA18F10108C0B2FFF797FF0E
:1045940007007FB2002F01D5300009E07FB217EB8E
:1045A4004606E8E7300003E018F1010008F0FAF9E4
:1045B400BDE8F0812DE9F04104000D0014F1200064
:1045C4000600A069002807D02A0001212000A36961
:1045D4009847804640460FE02800FFF77EFF07001B
:1045E4007068874207DBB068B84204DB3068076054
:1045F4005FF0FF3000E00020BDE8F081F8B5040072
:104604000D0014F120000600A069002807D02A003C
:1046140000212000A3699847070038000BE0706868
:10462400854207DBB068A84204DB306805605FF0B0
:10463400FF3000E00020F2BD2DE9F04104000D0040
:10464400280008F0F9F9070014F120000600A06919
:10465400002807D02A0002212000A3699847804639
:1046640040460FE03800716802F098FD09D8B06840
:10467400390002F093FD04D8306807605FF0FF3022
:1046840000E00020BDE8F0812DE9F04104000D00B8
:10469400681C08F007FA01F015F9804614F12000AF
:1046A4000600A069002807D02A0002212000A3697F
:1046B40098470700380010E04046716802F06EFD2C
:1046C4000AD8B068414602F069FD05D83068C0F8E0
:1046D40000805FF0FF3000E00020BDE8F081F0B51D
:1046E40083B004000D00009514F120000600A069B9
:1046F400002807D0009A02212000A36998470700E8
:10470400380010E00098716802F048FD0AD8B068DB
:10471400009902F043FD05D83068009901605FF00C
:10472400FF3000E00020FEBD2DE9F04104000D0043
:1047340014F120000600A069002807D02A000121F6
:104744002000A36998478046404610E02800FFF700
:10475400C4FE0700002F01D5002008E03079B842DC
:1047640004DB306807705FF0FF3000E00020BDE834
:10477400F081F8B504000D0014F120000600A069D2
:10478400002807D02A0000212000A36998470700C9
:1047940038000CE0002D01D5002008E03079A84253
:1047A40004DB306805705FF0FF3000E00020F2BDEC
:1047B4002DE9F84304000D005FF0000914F1200016
:1047C4000600A069002807D02A0001212000A3695F
:1047D40098470700380030E0287831680978884223
:1047E40012D1012080462878401C80450EDA18F842
:1047F4000500316818F80110884202D00120814672
:1048040004E018F10108EEE7012081467068297878
:10481400891C884210DB5FFA89F9B9F1000F0BD0CB
:104824003068002805D02878821C2900306801F0FF
:10483400E9FF5FF0FF3000E00020BDE8F2832DE9DE
:10484400F84F04000D0016001F000020834614F1E9
:1048540020008046002D01D5584635E0D8F80400E4
:10486400401EB04201DA58462EE0AE4201DA584604
:104874002AE0A06900280AD0009733002A00052105
:104884002000D4F818C0E047834658461CE0AA46E6
:10489400564518DB386881463F1D4846D8F808104D
:1048A40002F07CFC0CD8D8F80C00494602F076FCE7
:1048B40006D8D8F8000040F82A905FF0FF3083460D
:1048C4001AF1010AE4E75846BDE8F28F2DE9F84FE2
:1048D40004000D0016001F000020834614F1200080
:1048E4008046002D01D5584631E0D8F80400401E1A
:1048F400B04201DA58462AE0AE4201DA584626E0D0
:10490400A06900280AD0009733002A00042120005F
:10491400D4F818C0E0478346584618E0AA465645DE
:1049240014DB386881463F1DD8F8080081450ADB4E
:10493400D8F80C00484506DBD8F8000040F82A9067
:104944005FF0FF3083461AF1010AE8E75846BDE8F4
:10495400F28F2DE9F84F04000D0016000020814667
:10496400A06900280AD03300EDB22A0003212000F8
:10497400D4F818C0E047814648464EE014F12000C0
:1049840007003879EDB2A84201D238790500002039
:104994008246EDB2AA451BDA56F82A000005000D3E
:1049A400834659462068FFF7DDFC8046B8F1000FC6
:1049B40001D1484631E098F80500401E012802D98B
:1049C400C01E052802D81AF1010AE2E7484624E08D
:1049D4003868057000208246EDB2AA451CDA0C2026
:1049E400B96800FB0A1031680905090D01600C2043
:1049F400B96800FB0A103168090B01710C20B96811
:104A040000FB0A103168090D8160361D5FF0FF302C
:104A140081461AF1010ADFE74846BDE8F28F2DE925
:104A2400F04F83B004008A4615001E005FF00009B1
:104A3400002C01D100200DE1A079C00706D55FFA52
:104A44008AFABAF1000F01D1002003E1607901284C
:104A540015D0C0F0FE80032841D028D3052874D097
:104A640049D3072800F0AD80C0F09380092800F0F6
:104A7400D180C0F0BE800A2800F0DD80E9E0EDB20C
:104A8400002D08D130680700361D39002000FFF7DB
:104A9400B5FD81460AE0EDB2012D07D130688046AC
:104AA400361D41462000FFF785FD8146D1E0EDB279
:104AB400002D08D130680700361D39002000FFF7AB
:104AC40058FE81460AE0EDB2012D07D130688046D8
:104AD400361D41462000FFF727FE8146B9E0EDB2BE
:104AE400012D07D130688046361D41462000FFF76E
:104AF4005FFE8146ADE0EDB2002D08D130680700BD
:104B0400361D39002000FFF797FD81461CE0EDB209
:104B1400012D08D130688046361D41462000FFF73C
:104B2400B3FD814610E0EDB2022D0DD1F61D36F035
:104B34000706D6E9000100F0C5FE8346083659464B
:104B44002000FFF7CCFD814683E0EDB2002D08D1B3
:104B540030680700361D39002000FFF76DFD8146DF
:104B640016E0EDB2012D08D130688046361D41466D
:104B74002000FFF789FD81460AE0EDB2022D07D13E
:104B840030688346361D59462000FFF7A8FD81464C
:104B94005FE0EDB2002D08D130680700361D390002
:104BA4002000FFF72BFD81460AE0EDB2012D07D16D
:104BB40030688046361D41462000FFF7FBFC8146E5
:104BC40047E0EDB2002D08D130680700361D3900EA
:104BD4002000FFF713FD81460AE0EDB2012D07D155
:104BE40030688046361D41462000FFF7E3FC8146CD
:104BF4002FE030688346361D30680190361D3068DA
:104C04000090361D009B019A59462000FFF75EFE76
:104C140081461EE030688346361D30680090361D9C
:104C240030680190361D019B009A59462000FFF719
:104C340006FE81460DE030688346361D30680090DC
:104C4400361D009A5946C9B22000FFF782FE8146FC
:104C5400FFE74846BDE8FE8F2DE9F04104000D0052
:104C64001600002C01D1002055E0A079C00704D51E
:104C7400EDB2002D01D100204DE0607901280ED065
:104C8400022812D0032816D004281AD006281ED0D1
:104C9400082822D009282CD00A2836D038E03168D8
:104CA4002000FFF7ABFC070034E031682000FFF779
:104CB40060FD07002EE031002000FFF779FD0700BA
:104CC40028E031682000FFF70AFD070022E0316880
:104CD4002000FFF793FC07001CE0B046D8F804302E
:104CE40098F8012098F800102000FFF7EFFD070066
:104CF40010E0B046D8F8043098F8012098F8001075
:104D04002000FFF79CFD070004E00020070001E0FD
:104D1400002007003800BDE8F08138B5040025689C
:104D2400A079800709D5E069007850F00100E169B5
:104D34000870287E50F0010028762000FFF727FB3A
:104D4400E0690078C00706D56868002803D001210F
:104D54002000FFF737FB31BD10B50400022120000D
:104D6400FFF730FB10BD38B504002568A079800733
:104D740009D5E069007850F00100E1690870287EE7
:104D840050F0010028762000FFF701FBE06900786D
:104D9400C00706D56868002803D000212000FFF76B
:104DA40011FB31BD08B42DE9F84104000D001600D3
:104DB40007A8804643463200D2B22900C9B2200077
:104DC400FFF72DFE0700002F02D02000FFF7A5FFFC
:104DD4003800BDE8F2015DF808FB08B42DE9F8419C
:104DE40004000D00160007A8804643463200D2B2E4
:104DF4002900C9B22000FFF712FE0700002F02D0DD
:104E04002000FFF7A9FF3800BDE8F2015DF808FBB8
:104E140008B42DE9F84104000D00160007A88046E7
:104E240043463200D2B22900C9B22000FFF7F7FD91
:104E34000700002F02D02000FFF795FF3800BDE8DF
:104E4400F2015DF808FBF8B504000D00160032000D
:104E54002900C9B22000FFF7FFFE0700002F02D08F
:104E64002000FFF75AFF3800F2BDF8B504000D002A
:104E7400160032002900C9B22000FFF7EDFE07003A
:104E8400002F02D02000FFF767FF3800F2BD70B595
:104E940004002079002804D1206A2168896801600F
:104EA4008BE0607901280ED0022813D0032818D093
:104EB40004282BD0062822D008282ED009283DD03B
:104EC4000A284CD079E014F120010800C168006878
:104ED400016072E014F1200108004179006801705A
:104EE4006BE014F120000500A868002806D02868AB
:104EF400002803D0A968286807F0DCFD5DE014F100
:104F04002001080001690068016056E014F12001E5
:104F14000800C168006801604FE014F1200210002D
:104F2400002211004268914207DA026952F82120F6
:104F3400036843F82120491CF4E73EE014F1200201
:104F44001000002211004268914207DA026952F807
:104F54002120036843F82120491CF4E72DE014F1D3
:104F640020031800C368190000231A0003799A4229
:104F74001FDA0C23856803FB02530C258E6805FB9E
:104F840002652D681D600C23856803FB02530C2504
:104F94008E6805FB02652D791D710C23856803FB62
:104FA40002530C258E6805FB0265AD689D60521C9A
:104FB400DCE7097900680170FFE770BD30B50200D5
:104FC4000023507901280AD002281BD0032867D077
:104FD400082825D0092842D00A2862D062E012F1BC
:104FE40020010800016809684468A14204DB816863
:104FF40004682468A14204DAC168046821600121BC
:105004000B004FE012F120010800017904682478B4
:10501400A14204D241790468217001210B0041E0CE
:1050240012F120042000002421004468A14215DA72
:10503400046854F821408568AC4205DBC4680568FF
:1050440055F82150AC4207DA046954F82140056848
:1050540045F8214001242300491CE6E722E012F12F
:1050640020000400002005006068854217DA2068EB
:1050740050F82500A168FEF729FF06D3E0682168EF
:1050840051F82510FEF722FF07D2206950F82500B9
:10509400216841F82500012003006D1CE4E701E0CC
:1050A40000E0FFE71800C0B230BDF8B504005FF0BF
:1050B400FF35607901280ED0022817D0032868D064
:1050C40004281ED0062840D0082826D0092847D016
:1050D4000A2870D0B3E014F12001080001680968BF
:1050E400C268914201D100210D00ABE014F120010E
:1050F4000800016809784279914201D100210D002C
:10510400A0E014F12000020010680068D16807F0E4
:10511400F3FC01D10020050094E014F1200001000B
:1051240000200200486882420CDA086850F8220025
:105134000B6953F82230984202D05FF0FF3082E0CE
:10514400521CEFE7002005007CE014F12001080068
:10515400016809680269914201D100210D0071E0E2
:1051640014F12000020000200300506883420DDA8D
:10517400106850F82300116951F8231007F0BCFCA3
:1051840002D05FF0FF305EE05B1CEEE7002005001C
:1051940058E014F120000600B06800280AD03068F6
:1051A400002807D0B168306807F0B4FC002801D1AA
:1051B4000020050046E014F120000100C868020048
:1051C40000200300087983422EDA0C208E6800FB4D
:1051D400036000680C26976806FB03763668B042C5
:1051E40002D05FF0FF302EE00C208E6800FB0360DD
:1051F40000790C26976806FB03763679B04202D014
:105204005FF0FF301FE00C208E6800FB03608068B5
:105214000C26976806FB0376B668B04202D05FF0AE
:10522400FF3010E05B1CCDE7086800781679B042C7
:1052340002D05FF0FF3006E00020050002E05FF0DE
:10524400FF3000E02800F2BD70B504000D00160028
:10525400E0690078800701D5002019E0A079C00733
:1052640001D5002014E0A079800708D5E069007812
:1052740050F00100E16908702868401C2860E0696A
:10528400007850F00200E16908702000FFF796FEF4
:1052940070BD0079704710B4DFF86445D4E9002389
:1052A400002902D1C0E9002337E04C79012C0CD04D
:1052B400022C10D0032C14D0042C17D0082C1BD093
:1052C400092C1ED00A2C21D025E011F120042468D9
:1052D400246822001FE011F12004246824782200AD
:1052E40019E011F120042468220014E011F12004D3
:1052F4002468246822000EE011F1200424682200AE
:1053040009E011F120042468220004E011F12004D2
:10531400A4682200FFE7C0E9002310BC7047010025
:105324000022002901D1002031E0487901280CD065
:1053340002280FD0032812D0042815D0082818D02A
:1053440009281BD00A281ED020E011F12000006893
:1053540002001BE011F120000068020016E011F1C8
:1053640020000068020011E011F120000068020032
:105374000CE011F120000068020007E011F12000A8
:105384000068020002E000200200FFE710007047FE
:10539400F8B504000D00002729002000FEF75AFF8D
:1053A4000600002E02D50020070003E0E06850F854
:1053B400260007003800F2BDF8B504000D00160001
:1053C40029002000FEF7B9FF0700002F04D03200A7
:1053D40001213800FFF749FDF1BDF0B583B00400A9
:1053E4000D0000200190002000906560DFF8140497
:1053F400DFF814140968016000200600A0688642E2
:105404000EDA00AA01A9E06850F82600FFF71CFF95
:10541400002803D0DFF8F40301210170761CEDE7C6
:10542400E06800680079070000200600A068864252
:105434000CDAE06850F826000079B84206DBE06830
:1054440050F8260000790700761CEFE7F7BD38B561
:10545400040000200500A068854206DAE06850F8E0
:105464002500FFF714FD6D1CF5E731BD2DE9F04172
:1054740082B004000D001600E4B22000012808D018
:10548400022810D003282AD0082834D0092833D081
:1054940033E0E8680090AB686A6828680168DFF860
:1054A4007003B04732E02F007B793A79386801788D
:1054B400DFF86003B04700208046387940450DDBB3
:1054C400B86850F82800002805D0B86850F82800BB
:1054D400411C4CA0B04718F10108EEE716E02F007C
:1054E4003868002806D0B868431C7A683868411CBC
:1054F400C948B0470AE009E008E0C248006800284B
:1055040004D0C6491020BF4A12689047BDE8F38111
:105514002DE9F04104000D001600E4B22000022839
:1055240002D0032816D01DE02F00002080463879D1
:1055340040450EDBB86850F82800002806D04246E3
:10554400B86850F82800411CB548B04718F1010864
:10555400EDE707E02F003868002802D07968B148E9
:10556400B047FFE7BDE8F08170B504000D001600F8
:10557400E80701D5AC4900E0AC4999A0B047A007C1
:1055840001D598A100E098A195A0B047E00701D506
:10559400A74900E0A74992A0B047680701D5A649EA
:1055A40000E0A6498EA0B04770BD38B504000D00D8
:1055B400A068421C2179A248A847E068411C88A041
:1055C400A84760799F4951F8201085A0A8472A0070
:1055D400E0690178A079FFF7C7FF2A0014F12001E0
:1055E4006079FFF743FF81A0A84731BD38B50400B7
:1055F4000D007EA0A8472A0014F120016079FFF76E
:1056040087FF31BD2C2573002DE9F04182B00400E1
:105614000D00002C00F0E280607901280DD00228F2
:1056240012D003281DD0042822D008284AD00928E3
:1056340058D00A2800F08980CEE014F120063068A2
:1056440001686BA0A847C9E014F12006306802780D
:1056540030680078B16851F82000411C7A48A847A6
:10566400BCE014F120063068411C62A0A847B5E0F4
:1056740014F120063068006800F0FCF831F00041B5
:105684000022724B07F068FA13D23068006800F009
:10569400F1F831F0004101226D4B07F075FA08D89A
:1056A4003068006800F0E6F802000B0052A0A8473A
:1056B40007E03068006800F0DDF802000B004FA03E
:1056C400A8478BE014F12007002006007868864282
:1056D40007DA386850F8262031005E48A847761C5F
:1056E400F4E77BE014F12007002006007868864286
:1056F4002ADA386850F8260000F0BCF831F000418E
:1057040000F0E0F8804640465349FEF7DFFB0FD235
:105714004046524901F042FD0AD8386850F8260044
:1057240000F0A8F802000B0031004D48A84709E03A
:10573400386850F8260000F09DF802000B00310094
:105744004848A847761CD1E748E014F12000060039
:105754003279306801784448A84700208046306890
:105764000078804537DA0C20B16800FB0810016826
:105774002068FEF7F7FD0700002F16D03800FEF76B
:1057840016FD0C21B26801FB0821896800910C21E7
:10579400B26801FB08210B79421C0C20B16800FBA4
:1057A400081001683148A84712E00C20B16800FBDA
:1057B4000810806800900C20B16800FB0810037981
:1057C4002B4A0C20B16800FB081001682748A84741
:1057D40018F10108C3E701E01048A847BDE8F381C8
:1057E40025732C00524F4D0052414D000D0A00000C
:1057F400256400002573000025660000256500006F
:10580400F85203006C75001048100010E179001084
:105814004438030074430300804303008C430300B3
:105824009843030054380300005303000853030053
:10583400A4430300B043030010530300BC4303001C
:1058440018530300980E0010205303000088C3402F
:105854000000F03FC843030000401C460100803FA5
:10586400D4430300E043030090280300BC19030061
:10587400285303005FF0FF0C1CEAD05114BF6145AC
:1058840006E0C110400721F0E04101F1605170478A
:1058940079B900F0004100020AD0B0FA80FC00FAA5
:1058A4000CF001F16051A1EB0C5101EBD02140054A
:1058B400704741020CBF40F4E0016FF0000100208A
:1058C400704701004FEAF17CBCF1E04C2CBFBCF501
:1058D400001F11E05FEA4C0C34BFBCF17F5F2EE087
:1058E4005FEA9C0C4FEA0C1C4FEA3C0CC10071F1BE
:1058F40000414CEB50707047C90241EA5051C0025C
:1059040018BF41F0010141F000414FEA6C50C0F171
:105914000900212810D240EACC7CCCF1200C11FAE9
:105924000CF070F10040CCF1200C21FA0CF00CF0DA
:10593400004C40EB0C0070474FEACC7070474900B4
:1059440011F5001F04D84FEACC10FF30C005704792
:10595400C817704770B50400002626480078002850
:105964002ED12548007800282AD1002C28D000F018
:10597400F3FE06002148006890F830000500EDB2FF
:105984001F48285C1D49096891F831108843EDB21D
:105994001B496854EDB21A48285C002808D11948FC
:1059A40000781649096891F832108843154908703F
:1059B400124800688462300000F0D2FE07F0AFFBAA
:1059C40070BD38B5002500F0C7FE05000E4800681C
:1059D4000400280000F0C4FE200032BD38B50400E5
:1059E400002500F0B9FE050007480460280000F017
:1059F400B7FE31BD0B7A00100C7A0010407800100D
:105A0400387800100F7A001058780010B0B581EA89
:105A1400030C0CF0004C40F2FF7515EA11541DBF45
:105A240015EA1357AC42AF4239E0E41923EA45536F
:105A340043F48013C90241F0004141EA505EC702B9
:105A44001100A7FB020200284FF00000EEFB01202A
:105A54004FF00001E3FB072118BF42F00102401898
:105A640000214941E3FB0E01A4F580640F0302D237
:105A740052004041494154F101046CDD470872F180
:105A8400004250F1000051EB0451A1F580115CBFBC
:105A940041EA0C01B0BD4CEA05510020B0BD05EA55
:105AA4001357AC4214BFAF4241E050EA410E1CBF51
:105AB40052EA430E02E061460020B0BD24423C4459
:105AC4001BD15FEA070EF6D0090302BF014600208E
:105AD400AEF1140EB1FA81F7AEEB070401FA07FE3A
:105AE4000C37C7F1200100FA07F7C8404EEA000E50
:105AF40023EA455343F48013A2E733F00043B3FA97
:105B040083F704BFB2FA82FE77440B3FE41BB7F17C
:105B1400200E2FBF02FA0EF3BB40C7F1200E22FA6B
:105B24000EFE38BF43EA0E03BA40641C82E750EA13
:105B3400410E14BF52EA430E6FF000014FF40017F8
:105B440017EB430F8ABF194617EB410FB5E74CEA31
:105B540005510020B0BDD4F10104B4F120070FDADF
:105B6400C4F12007520828BF42F0010210FA07F5D9
:105B740001FA07F7E1BF2A43E0403843E1400FE070
:105B8400352C98DCC7F1200452EA400220FA07F2CF
:105B940018BF42F0010231FA07F0A1400A43002184
:105BA40072F1004250F1000051EB0C01B0BD010054
:105BB400002840F10880F446404200F004F850F018
:105BC4000040604700280AD0B0FA80F18840D1F143
:105BD4009D01C905020672F1004241EB1020704795
:105BE4000A6802604A6842608A6882607047F0B559
:105BF40004000D00160021682868FEF7FBF9070071
:105C040061686868FEF7F6F93900FEF75FFA070085
:105C1400A168A868FEF7EEF93900FEF757FA30607C
:105C2400F0BDF0B504000D00160021682868FEF7E9
:105C3400E1F9070061686868FEF7DCF93900FEF7EE
:105C440045FA0700A168A868FEF7D4F93900FEF701
:105C54003DFA3060F0BDF0B504000D001600216877
:105C64002868FEF7C7F9070061686868FEF7C2F99B
:105C74003900FEF72BFA0700A168A868FEF7BAF905
:105C84003900FEF723FA3060E1682868FEF7B2F9BC
:105C9400070021696868FEF7ADF93900FEF716FAC6
:105CA40007006169A868FEF7A5F93900FEF70EFA46
:105CB4007060A1692868FEF79DF90700E1696868CA
:105CC400FEF798F93900FEF701FA0700216AA8687F
:105CD400FEF790F93900FEF7F9F9B060F0BDF0B5C0
:105CE40004000D0016006168A868FEF783F9070038
:105CF400A1686868FEF77EF901003800FEF7F8F83D
